S01500005A485F323032335F31315F30362E73726563C1
S113000045C0000060C000005EC000005CC000008D
S11300105AC0000058C0000056C0000054C0000080
S113002052C0000050C000004EC000004CC0000090
S113003054C1000048C0000046C000001AC20000BD
S113004042C0000040C000003EC000003CC00000B0
S11300503AC0000038C0000036C0000034C00000C0
S113006032C0000030C000002EC000002CC00000D0
S11300702AC0000028C0000026C0000024C00000E0
S113008022C0000020C000001EC0000011241FBEBA
S1130090CFEFD0E1DEBFCDBF11E0A0E0B1E0E2E1FF
S11300A0F8E000E00BBF02C007900D92A83AB10738
S11300B0D9F721E0A8EAB1E001C01D92AC3BB20738
S11300C0E1F78FD2A4C39CCFE4E6F0E08081807E88
S11300D080830895809163008F71B1F0843071F052
S11300E028F4813099F0823039F004C0883041F02E
S11300F0803141F080E00BC082E009C083E007C09A
S113010084E005C085E003C080E001C081E09091F7
S1130110B701891719F08093B701089580E0089515
S1130120E2E6F0E08081877F80838FE39FE101979F
S1130130F1F700C000008081886080838FE39FE135
S11301400197F1F700C000008081877F80838FE3EF
S11301509FE10197F1F700C000000895CF93DF936A
S1130160C82FE2E6F0E080818B7F808380818D7FE1
S11301708083D1B18C2F807F83B9D2DF20E1C29FED
S1130180C001112483B9CCDFD3B9DF91CF91089595
S113019082B1806F82B9E1E6F0E08081886080837B
S11301A080818260808380818460808383B1806267
S11301B083B9B6DFB5DFB4DF88E2D0DF88E2CEDF13
S11301C088E2CCDF8CE0CADF81E0C8CF0895CF930A
S11301D0DF93C82FE2E6F0E080818B7F808380810B
S11301E082608083D1B18C2F807F83B999DF20E135
S11301F0C29FC001112483B993DFD3B9DF91CF919A
S11302000895CF93DF93EC0102C0E1DF219688814A
S11302108111FBCFDF91CF910895CF93DF9300D06D
S113022000D0CDB7DEB7603108F06FE090E8998375
S113023090EC9A8390E99B8390ED9C83E1E0F0E05D
S1130240EC0FFD1FE80FF11D8081860F87DF0F90F3
S11302500F900F900F90DF91CF91089580EF87BB9F
S113026081BB0895982F9295907F98BB82BB089587
S1130270CF939091B201890FC82FC37060E0892F8A
S1130280CCDF80E2A4DF60E08C2FC7DF8EE39FDF4A
S1130290C093B201CF910895CF93DF93EB012091E6
S11302A0AF013091B001820F931FFC018081DADF2E
S11302B021978091AF019091B001C817D90729F413
S11302C01092B0011092AF0105C001969093B00155
S11302D08093AF01DF91CF9108951F920F920FB6D3
S11302E00F9211240BB60F922F933F934F935F936A
S11302F06F937F938F939F93AF93BF93EF93FF93EA
S11303006FE070E080E091E0C7DFFF91EF91BF9173
S1130310AF919F918F917F916F915F914F913F9199
S11303202F910F900BBE0F900FBE0F901F9018953A
S11303300F931F93CF938C0178D1C82F8F3F39F13E
S1130340833239F144DF8091AD019091AE01FC011B
S1130350E855FE4FC0838430910511F0CA3281F410
S1130360FC01E855FE4F108288EA91E0F8D1F801CB
S1130370918380831092AE011092AD0181E00AC096
S113038001969093AE018093AD0180E003C080E0BC
S113039001C080E0CF911F910F9108950F931F9397
S11303A0CF93DF9300D000D0CDB7DEB765E080E017
S11303B034DF8091B3018A3018F48CE691E021DFB8
S11303C003EB11E0F80180814AE0BE016F5F7F4FCB
S11303D090E0E2D116DF89E791E013DFF801818133
S11303E08A3018F48CE691E00CDF03EB11E0F8019D
S11303F081814AE0BE016F5F7F4F90E0CDD101DF84
S113040089E791E0FEDEF80182818A3018F48CE6F7
S113041091E0F7DE8091B5014AE0BE016F5F7F4F46
S113042090E0BAD1EEDE0F900F900F900F90DF9115
S1130430CF911F910F9108958091B5018B33A9F449
S1130440E3EBF1E0128281818B3359F411828081D4
S11304508B3019F41092B30108958F5F8093B30128
S113046008958F5F8093B40108958F5F8093B501E1
S113047008951F920F920FB60F9211240BB60F928C
S11304802F933F934F935F936F937F938F939F9398
S1130490AF93BF93EF93FF9381DFCEDFFF91EF9193
S11304A0BF91AF919F918F917F916F915F914F9188
S11304B03F912F910F900BBE0F900FBE0F901F9086
S11304C0189561E081E0A9DE8DE791E09ADE61E0B4
S11304D081E0A3DE8EE691E094DE8AEB91E028DFF2
S11304E08130D9F761E099DE8DE791E08ADE61E041
S11304F081E093DE85E791E084DE88EB91E018DF0C
S11305008130D9F72091BA013091BB018091B801B3
S11305109091B90128173907A4F661E081E07DDEE6
S11305208BE791E06EDE81E08093B101089560E095
S113053070E080E090E0A5D061E081E06EDE89E8C3
S113054091E05FCE089561E081E067DE84E991E0A7
S113055058DE61E17AE780E091E0CAC0089560E086
S113056070E080E090E0C4D080E07CDE61E081E077
S113057054DE89E891E045CE089561E081E04DDEE6
S11305808FE991E03EDE6DE770E080E890E079C0AD
S1130590089560E070E080E090E073D061E081E075
S11305A03CDE89E891E02DCE08958091B20181303E
S11305B031F018F0833029F00895C5CF089581CF24
S11305C00895DBCF08958091B201813031F018F0A5
S11305D0833029F00895C3CF0895A9CF0895D9CFC2
S11305E008953CDE1ED0D4DD6FDD74DDEFE3FFE162
S11305F03197F1F700C00000823061F018F48130C7
S113060031F0F3CF833049F0843049F0EECF81E00C
S11306102FDEEBCF8FEF2CDEE8CFC7DFE6CFD3DFC3
S1130620E4CF84B3886784BB089598E0E0E015C004
S113063095BB83B38770AFE1BEE41197F1F700C0B7
S11306400000863081F021E02E0F853049F022E051
S11306502E0F833039F0ED5F990F913448F303C0C6
S1130660E22F01C0E22F8091B601E81739F0E09340
S1130670B601F0E0E15FFE4F8081089580911B0197
S1130680089520E030E010C0F901EE0FFF1FEE0FD7
S1130690FF1FE20FF31FEC5BFE4F408151814817AF
S11306A0590729F02F5F3F4F283031056CF3F901CA
S11306B0EE0FFF1FEE0FFF1F2E0F3F1FF901EC5B24
S11306C0FE4F828190E09C01220F331F220F331FC3
S11306D09381892F90E0880F991F9481822B892B15
S11306E0886083BF12BE82E087BF61BF789408959B
S11306F020E030E010C0F901EE0FFF1FEE0FFF1FE6
S1130700E20FF31FE45EFE4F408151814817590701
S113071029F02F5F3F4F283031056CF3F901EE0FBC
S1130720FF1FEE0FFF1F2E0F3F1FF901E45EFE4F68
S1130730828190E09C01220F331F220F331F93818B
S1130740892F90E0880F991F9481822B892B8860D0
S11307508EBD81E087BF7BBD6ABD78940895FC019E
S113076088279927E89421912032E9F3293010F061
S11307702E30C8F32B3239F02D3231F4689403C093
S113078015D0820F911D219120532A30C8F31EF4F5
S1130790909581959F4F0895BB274A3031F4992352
S11307A022F4BDE2909581959F4F09C07AE0979F0E
S11307B0902D879F802D910D11240895BB27FB0157
S11307C05527AA27880F991FAA1FA41710F0A41B46
S11307D083955051B9F7A05DAA3308F0A95DA193A0
S11307E0009779F7B111B1931192CB0100C0DC01EC
S11307F0FC01672F71917723E1F7329704C07C9154
S11308006D9370836291AE17BF07C8F30895F8948F
S1050810FFCF14
S11308120103070F1E3C78F0783C1E0F07030131D9
S113082232333435363738392A3023FF000000009A
S11308320001000000010800000100400000010165
S113084200010100000004010001FFFF010100FE9C
S1130852FF01010100000000000100000001080086
S1130862000100200000010140000100008000019D
S11308720001000101010000040101013000537470
S11308826172743A0053746F703A00202020202061
S113089220202020202020200053544F50202020AC
S11308A220202000204C454420202020202000200D
S10B08B2434C4F434B2020008E
S90305AA4D
