:1000000045C0000060C000005EC000005CC0000091
:100010005AC0000058C0000056C0000054C0000084
:1000200052C0000050C000004EC000004CC0000094
:100030004AC0000048C0000046C00000DBC100000C
:1000400042C0000040C000003EC000003CC00000B4
:100050003AC0000038C0000036C0000034C00000C4
:1000600032C0000030C000002EC000002CC00000D4
:100070002AC0000028C0000026C0000024C00000E4
:1000800022C0000020C000001EC0000011241FBEBE
:10009000CFEFD0E1DEBFCDBF11E0A0E0B1E0E0E105
:1000A000F8E000E00BBF02C007900D92AC36B1073C
:1000B000D9F721E0ACE6B1E001C01D92A438B20747
:1000C000E1F7C5D2A3C39CCFE4E6F0E08081807E57
:1000D00080830895809163008F71B1F0843071F056
:1000E00028F4813099F0823039F004C0883041F032
:1000F000803141F080E00BC082E009C083E007C09E
:1001000084E005C085E003C080E001C081E09091FB
:100110007F01891719F080937F01089580E0089589
:10012000E2E6F0E08081877F80838FE39FE10197A3
:10013000F1F700C000008081886080838FE39FE139
:100140000197F1F700C000008081877F80838FE3F3
:100150009FE10197F1F700C000000895CF93DF936E
:10016000C82FE2E6F0E080818B7F808380818D7FE5
:100170008083D1B18C2F807F83B9D2DF20E1C29FF1
:10018000C001112483B9CCDFD3B9DF91CF91089599
:1001900082B1806F82B9E1E6F0E08081886080837F
:1001A00080818260808380818460808383B180626B
:1001B00083B9B6DFB5DFB4DF88E2D0DF88E2CEDF17
:1001C00088E2CCDF8CE0CADF81E0C8CF0895CF930E
:1001D000DF93C82FE2E6F0E080818B7F808380810F
:1001E00082608083D1B18C2F807F83B999DF20E139
:1001F000C29FC001112483B993DFD3B9DF91CF919E
:100200000895CF93DF93EC0102C0E1DF219688814E
:100210008111FBCFDF91CF910895CF93DF9300D071
:1002200000D0CDB7DEB7603108F06FE090E8998379
:1002300090EC9A8390E99B8390ED9C83E1E0F0E061
:10024000EC0FFD1FE80FF11D8081860F87DF0F90F7
:100250000F900F900F90DF91CF91089580EF87BBA3
:1002600081BB0895982F9295907F98BB82BB08958B
:10027000CF9390917A01890FC82FC37060E0892FC6
:10028000CCDF80E2A4DF60E08C2FC7DF8EE39FDF4E
:10029000C0937A01CF910895CF93DF93EB01209122
:1002A000770130917801820F931FFC018081DADFA2
:1002B00021978091770190917801C817D90729F487
:1002C000109278011092770105C001969093780101
:1002D00080937701DF91CF9108950F931F93CF9370
:1002E0008C01D9D1C82F8F3F39F1833239F16FDFBB
:1002F0008091750190917601FC01E059FE4FC08319
:100300008430910511F0CA3281F4FC01E059FE4FAE
:10031000108280E791E022D2F801918380831092CD
:1003200076011092750181E00AC0019690937601E2
:100330008093750180E003C080E001C080E0CF9130
:100340001F910F910895CF93DF9300D000D000D07C
:10035000CDB7DEB780917901813051F410927901E7
:10036000809180019091810190936F0180936E0143
:1003700080916C0190916D01883C910569F5109216
:100380006D0110926C0161E081E047DF4AE0BE013F
:100390006F5F7F4F80916E0190916F01FCD1CE0114
:1003A00001962FDF80916E0190916F012091820163
:1003B000309183018217930749F4809180019091D5
:1003C000810190936F0180936E010BC00197909310
:1003D0006F0180936E0105C0019690936D0180932B
:1003E0006C0126960FB6F894DEBF0FBECDBFDF912D
:1003F000CF9108951F920F920FB60F9211240BB652
:100400000F922F933F934F935F936F937F938F93AD
:100410009F93AF93BF93EF93FF9395DFFF91EF917E
:10042000BF91AF919F918F917F916F915F914F910C
:100430003F912F910F900BBE0F900FBE0F901F900A
:1004400018950F931F93CF93DF9300D000D0CDB7B3
:10045000DEB765E080E0E1DE80917B018A3018F450
:1004600084E491E0CEDE0BE711E0F80180814AE000
:10047000BE016F5F7F4F90E08ED1C3DE81E591E0DA
:10048000C0DEF80181818A3018F484E491E0B9DE9D
:100490000BE711E0F80181814AE0BE016F5F7F4FF9
:1004A00090E079D1AEDE81E591E0ABDEF8018281AA
:1004B0008A3018F484E491E0A4DE80917D014AE062
:1004C000BE016F5F7F4F90E066D19BDE0F900F9073
:1004D0000F900F90DF91CF911F910F910895809110
:1004E0007D018B33A9F4EBE7F1E0128281818B333C
:1004F00059F4118280818B3019F410927B01089598
:100500008F5F80937B0108958F5F80937C010895B6
:100510008F5F80937D01089561E081E07EDE85E557
:1005200091E06FDE61E081E078DE86E491E069DEF3
:1005300082E891E0D2DE8130D9F761E06EDE85E5B8
:1005400091E05FDE61E081E068DE8DE491E059DEFC
:1005500080E891E0C2DE8130D9F7209182013091AC
:100560008301809180019091810128173907A4F6B9
:1005700061E081E052DE83E591E043DE81E080933B
:1005800079016DE770E080E890E0B1C0089560E027
:1005900070E080E090E0ABD061E081E03EDE81E69B
:1005A00091E02FCE089561E081E037DE83E591E0B0
:1005B00028DE81E0809379016DE770E080E890E0CB
:1005C00096D061E070E080E091E066CE089560E052
:1005D00070E080E090E08BD061E081E01EDE81E69B
:1005E00091E00FCE08952DDF7ADF2FEF83ED90E3BA
:1005F000215080409040E1F700C00000089560E085
:1006000070E080E090E073D061E081E006DE81E69A
:1006100091E0F7CD089580917A01813031F018F0A2
:10062000833029F00895BFCF089576CF0895DBCFAA
:10063000089580917A01813031F018F0833029F0EB
:100640000895C5CF0895A3CF0895D9CF089506DEA4
:100650001ED09EDD39DD3EDDEFE3FFE13197F1F79E
:1006600000C00000823061F018F4813031F0F3CF27
:10067000833049F0843049F0EECF81E0F9DDEBCFF3
:100680008FEFF6DDE8CFC7DFE6CFD3DFE4CF84B36B
:10069000886784BB089598E0E0E015C095BB83B3FC
:1006A0008770AFE1BEE41197F1F700C0000086301B
:1006B00081F021E02E0F853049F022E02E0F8330AB
:1006C00039F0ED5F990F913448F303C0E22F01C078
:1006D000E22F80917E01E81739F0E0937E01F0E08F
:1006E000E15FFE4F8081089580911B01089520E015
:1006F00030E010C0F901EE0FFF1FEE0FFF1FE20FF9
:10070000F31FE45EFE4F408151814817590729F0DD
:100710002F5F3F4F283031056CF3F901EE0FFF1FBB
:10072000EE0FFF1F2E0F3F1FF901E45EFE4F828187
:1007300090E09C01220F331F220F331F9381892FDA
:1007400090E0880F991F9481822B892B886083BF4A
:1007500012BE82E087BF61BF78940895FC018827AC
:100760009927E89421912032E9F3293010F02E30B6
:10077000C8F32B3239F02D3231F4689403C015D010
:10078000820F911D219120532A30C8F31EF49095B9
:1007900081959F4F0895BB274A3031F4992322F465
:1007A000BDE2909581959F4F09C07AE0979F902D6B
:1007B000879F802D910D11240895BB27FB0155279C
:1007C000AA27880F991FAA1FA41710F0A41B8395AE
:1007D0005051B9F7A05DAA3308F0A95DA193009725
:1007E00079F7B111B1931192CB0100C0DC01FC018A
:1007F000672F71917723E1F7329704C07C916D9355
:1008000070836291AE17BF07C8F30895F894FFCFC5
:100810000103070F1E3C78F0783C1E0F07030131DF
:1008200032333435363738392A3023FF00000000A0
:10083000000100000001080000010020000001018B
:1008400040000100008000010001000101010000E2
:1008500004010101300053746172743A0053746FE3
:10086000703A00202020202020202020202020203E
:0C0870000053544F502020202020200076
:0400000300000616DD
:00000001FF
